:020000020000FC
:0200000033C00B
:02002C0047C0CB
:0200080061C0D5
:1000680008E00EBF0FEF0DBF53985B9A219A229AB2
:10007800239A42E054E068E072E07DBB72E070933E
:100088006900299A30E010E0772770938500709313
:1000980084007DE37093890078E070938800772767
:1000A800709380007DE07093810072E070936F0020
:1000B8007894FFCF0E947B001395121711F40E94C9
:1000C800890018952B9918952A99189530E010E011
:1000D8000E9482001395121721F40E948900303083
:1000E80019F00E94A900F4CF0E94CB001895F1E006
:1000F800E0ECE30F0024F01D24910895F1E0E8EC12
:10010800E30F0024F01D249108951127303011F4D5
:100118000E94BF00313011F40E94C300323011F444
:100128000E94C700323019F40E94BD0001C0339507
:10013800303011F40E94BF00313011F40E94C30026
:10014800323011F40E94C700089572EC7093850054
:1001580077EF7093840077277093800075E0709331
:100168008100B09BFECF77277093810071E076BB4A
:10017800089530E0089505B1042705B9089505B13B
:10018800052705B9089505B1062705B90895772704
:1001980070938500709384007DE37093890078E004
:1001A800709388007727709380007DE070938100BA
:1001B80072E070936F000895060204000A020400BA
:0401C8000402040029
:00000001FF
